:020000040800F2
:10000000800400200501000809100008D70E000830
:10001000051000084D0A00081F1E0008000000001F
:10002000000000000000000000000000951400081F
:10003000690A0008000000000713000861160008A4
:100040001F0100081F0100081F0100081F01000810
:100050001F0100081F0100081F0100081F01000800
:100060001F0100086D0A00081F0100081F01000899
:100070001F0100081F0100081F0100081F010008E0
:100080001F0100081F0100081F0100081F010008D0
:100090001F0100081F0100081F010008250B0008B0
:1000A0001F0100081F0100081F0100081F010008B0
:1000B00041180008A51800081F0100081F010008CA
:1000C0001F0100081F0100081F0100081F01000890
:1000D0001F010008A91B00081F0100081F010008DC
:1000E0001F0100081F0100081F010008DFF810D0E1
:1000F00000F02EFB0048004745280008AFF30080C1
:10010000800400200648804706480047FEE7FEE7D7
:10011000FEE7FEE7FEE7FEE7FEE7FEE7FEE7FEE7B7
:1001200065160008ED00000880EA010210B502F033
:100130000043400022D04A001FD0010E01EB1261A3
:10014000C0F35600C2F3560240F4000042F400022D
:10015000A0FB022000047F39140400D0401C50EAA8
:10016000124001D44000491EC2B20C0604EBD0106C
:10017000401C4008802A02D003E0002010BD20F07F
:100180000100002900DA0020184310BD2DE9FE4FC0
:1001900081EA030404F0004421F0004100944FF090
:1001A000000B23F0004350EA01045ED052EA03043E
:1001B0005BD0C3F30A54C1F30A552C44A4F2F334C0
:1001C0000194A0FB0254C1F3130141F48011C3F365
:1001D000130343F4801301FB024400FB034E840A23
:1001E000970A44EA815447EA8357A4FB07680295BB
:1001F0008D0A05FB07854FEA932C04FB0C54270559
:10020000029D4FEA065847EA1637B5EB08056EEB34
:10021000070C870E920E47EA811742EA8312A7FB6A
:100220000201B6EB0B0164EB00042B0D43EA0C3327
:100230005E1844EB1C50DA465146E7FB0201C5F359
:1002400013044FEA0B3343EA14534FEA0432019C80
:1002500043EA0603A4F10C040294009CCDE900B427
:1002600000F0E1F803B0BDE8F08F00200146F9E7A7
:10027000C10F80EAE0700844CA079623002100F00D
:1002800095B896230022114600F090B80EB5C10F24
:1002900080EAE0700844CA07002140F233438DE849
:1002A0000E000A460B4600F0BEF803B000BD00F099
:1002B000004230F000400AD0C10D01F56071C0F37A
:1002C000160042EA0151C20840071143704700205E
:1002D0000146704701F0004330B421F0004150EA7C
:1002E000010206D00A0DA2F56072C1F31301002AC3
:1002F00002DC30BC00207047440F44EAC104C10056
:10030000E01830BC00EBC25000F047B830B50B46E7
:10031000014600202022012409E021FA02F59D4235
:1003200005D303FA02F5491B04FA02F52844151E09
:10033000A2F10102F1DC30BD2DE9F05F054600209D
:1003400092469B4688460646814640241BE0284646
:1003500041464746224600F01CFA53465A46C01A08
:10036000914110D311461846224600F003FA2D1A87
:1003700067EB01084F4622460120002100F0FAF900
:1003800017EB00094E41201EA4F10104DFDC4846B2
:1003900031462A464346BDE8F09F0029A8BF704772
:1003A000401C490008BF20F00100704710B4B0FAAB
:1003B00080FC00FA0CF050EA010404BF10BC704746
:1003C00049B1CCF1200421FA04F411FA0CF118BF60
:1003D000012121430843A3EB0C01CB1D4FEA00612F
:1003E0004FEA102042BF002010BC704700EBC35002
:1003F00010440029A4BF10BC7047401C490008BF2E
:1004000020F0010010BC704710B5141E73F10004F9
:1004100008DA401C41F1000192185B411A4301D1F6
:1004200020F0010010BD2DE9F04D92469B4611B120
:10043000B1FA81F202E0B0FA80F22032904600F088
:1004400099F904460F4640EA0A0041EA0B01534677
:100450005A46084313D0114653EA010019D0C8F197
:100460004002504600F095F905460E465046594662
:10047000424600F07FF9084305D0012004E0204601
:100480003946BDE8F08D0020054346EAE0762C436E
:1004900037430A986305E40AA0EB08000022FD0A2E
:1004A00044EA47540A3002D500200146E9E7010535
:1004B00010196941DDE9084500196941BDE8F04DB1
:1004C000A2E72DE9FE4F804681EA0300C00F0C46EB
:1004D000009021F0004123F00045B8EB0200A94153
:1004E00005D24046214690461C460B46024623F064
:1004F0000040104347D0270DC7F30A00C3F30A5149
:100500000290401A019040286BDAC3F3130040F4C4
:10051000801B0098924620B10023D2EB030A63EBC4
:100520000B0B01985946C0F14002504600F022F9E9
:1005300006460D4650465946019A00F03AF910EB2E
:1005400008006141002487EA115284EAE7731A43E4
:1005500040D0009A62B3019A012A4FEA075215DC93
:10056000001B61EB02014FF0004202EA0752CDE9A5
:100570000042001C41F5801132462B46FFF753FF25
:1005800003B0BDE8F08F40462146F9E7001B61EB60
:100590000201001C41F5801300185B412018A2F5F0
:1005A000001747EB030140EAD570B6196D4111E021
:1005B0006D084FEA360645EAC0754FEA0752001B40
:1005C00061EB0201001C41F5801149084FEA30003F
:1005D0000019514132462B4603B0BDE8F04FFFF7FA
:1005E00013BF0098012240000023D0EB020263EB0E
:1005F000E073009821464FEAE074B8EB000061EB2D
:100600000401E9E783F000435BE781F0004158E72C
:100610002DE9F04D81EA030404F0004B21F0004580
:1006200014464FF0000A23F0004150EA050220D0A2
:1006300054EA01021DD0C5F30A570246C5F313035D
:10064000C1F31300C1F30A5640F4801543F480133C
:10065000A7EB0608101BD64608F2FD3873EB050021
:1006600002D308F1010801E092185B41B8F1000FD4
:1006700003DA00200146BDE8F08D00204FF4801120
:10068000064684460EE0171B73EB050705D3121BC5
:1006900063EB050306434CEA010C49084FEA3000BE
:1006A00092185B4150EA0107EDD152EA030012D0E3
:1006B00082EA040083EA0501084305D0101BAB4120
:1006C00006D20122002306E000224FF0004302E0A0
:1006D0006FF0010253101AEB06004CEB085110EBBF
:1006E0000A0041EB0B01BDE8F04DFFF78DBEC1F3F1
:1006F0000A52C1F3130140F2FF3341F480119A42D0
:1007000002DA00200146704740F233439A42A2F2D7
:10071000334202DC524200F03CB800F02BB800003B
:1007200030B5041E71F1000404DB4FF00044404278
:1007300064EB0101141E73F1000405DB1C464FF04D
:100740000043524263EB0403994208BF904230BD1C
:10075000064C074D06E0E06840F0010394E807000E
:1007600098471034AC42F6D3FFF7C4FC1C3600089F
:100770003C360008202A04DB203A00FA02F100206F
:1007800070479140C2F1200320FA03F319439040CF
:100790007047202A04DB203A21FA02F0002170473A
:1007A00021FA02F3D040C2F12002914008431946D9
:1007B0007047202A06DBCB17203A41FA02F043EAC1
:1007C000E07306E041FA02F3D040C2F1200291400A
:1007D00008431946704721B1826842F001028260E5
:1007E00003E0826822F001028260704710B504467F
:1007F0001248844208D10121401500F0B1FD0021CA
:10080000601500F0ADFD17E00D48844208D10121CC
:10081000001500F0A5FD0021201500F0A1FD0BE062
:100820000848844208D10121C80300F099FD002145
:100830004FF4004000F094FD10BD00000024014082
:1008400000280140003C0140014600208A6802F077
:1008500004020AB1012000E0002070470146C86C84
:1008600080B270470246002013680B400BB1012094
:1008700000E000207047014600208A6802F008026C
:100880000AB1012000E000207047000030B50246A8
:100890000020002350680F4C20400D790C6844EA7A
:1008A00005242043506090680B4C2040D1E902544D
:1008B0002C434D7944EA450420439060D06A20F4EB
:1008C00070000C7C641EE4B2234340EA0350D06203
:1008D00030BD0000FFFEF0FFFDF7F1FFF0B504466C
:1008E0000D4600200021092D11DDE068A5F10A0662
:1008F00006EB4607072606FA07F18843A5F10A0624
:1009000006EB460603FA06F10843E0600CE02069B6
:1009100005EB4507072606FA07F1884305EB450670
:1009200003FA06F108432061072A0FDA606B561EAE
:1009300006EB86071F2606FA07F18843561E06EBCC
:10094000860605FA06F10843606322E00D2A0FDAF5
:10095000206BD61F06EB86071F2606FA07F1884391
:10096000D61F06EB860605FA06F10843206310E061
:10097000E06AA2F10D0606EB86071F2606FA07F1CC
:100980008843A2F10D0606EB860605FA06F1084338
:10099000E062F0BD816841F008018160704721B1DB
:1009A000826842F4A002826003E0826822F4A0021E
:1009B00082607047816841F00401816070470000E7
:1009C00000B587B001214FF4017000F0B9FC4FF47D
:1009D000004000F099FC1020ADF8040000208DF8D4
:1009E000070001A9174800F063F91748FFF7FEFE5A
:1009F000002002908DF80C008DF80D004FF460205F
:100A000004900020059001208DF8180002A90E48DE
:100A1000FFF73CFF01210C48FFF7DDFE0A48FFF716
:100A2000B9FF00BF0848FFF726FF0028FAD10648A3
:100A3000FFF7C0FF00BF0448FFF706FF0028FAD108
:100A400007B000BD000801400024014000BFFEE7E0
:100A50000148008880B270470C00002001480088DF
:100A600080B2704708000020704700002DE9F04177
:100A7000082000F07DF801283BD11E2001F0BCFECB
:100A800008211D4800F0E8F918B9FFF7E1FF1B49FC
:100A900008600821184800F0DFF9012826D1FFF787
:100AA000D7FF174908600968144A1268881AFFF7C7
:100AB000EDFB0646134A144BFFF768FB0446FFF7AD
:100AC00009FC1249086000F0E3FA10480068FFF7DB
:100AD000EEFB044622460B460DA1114801F0FCF93D
:100AE00010230F4A0421002000F0E4FB082000F04E
:100AF00039F8BDE8F0810000000801401400002032
:100B00001800002052B81E85EB51F03F1C00002059
:100B10004C656E6774683A252E3266636D2000005E
:100B20007200002010B5202000F022F8012811D119
:100B30002021094800F090F948B908480068401C95
:100B40000649086006480068401C054908602020E6
:100B500000F008F810BD0000000801400800002067
:100B60000C00002001490860704700001404014097
:100B7000014600200022074B1B6803EA0102054BD7
:100B800014331B680B4013B10AB1012000E00020B0
:100B90007047000000040140002123498279002AA7
:100BA0003AD00A46126803689A430B461A600A1D37
:100BB000126803689A430B1D1A60027911440A688F
:100BC00003681A430A60184A0832126803689A4395
:100BD000154B08331A601A1D126803689A43124BAA
:100BE0000C331A604279102A0ED11A1F126803685A
:100BF0001A430D4B08331A601A1D126803681A4312
:100C0000094B0C331A600DE00749427911440A6818
:100C100003681A430A6005E0027911440A68036810
:100C20009A430A60704700000004014010B501209B
:100C30000C49086000200C49C1F8B00101200949A5
:100C40003039086000200849C1F880014FF47571FF
:100C5000064800F01AFF4FF47571044800F013FFC6
:100C600010BD0000B481214200802142002C0140CF
:100C700030B500228B071C0F0F2303FA04F20B4B35
:100C80008C1053F824309343084C8D1044F82530D1
:100C900023468C1053F824308C07240F00FA04F4F8
:100CA0002343024C8D1044F8253030BD080001402C
:100CB0002DE9F041024600250026002000230024F3
:100CC000002791F803C00CF00F0591F803C00CF059
:100CD000100CBCF1000F03D091F802C04CEA0505DE
:100CE00091F800C0BCF1000F31D0146800202BE057
:100CF0004FF0010C0CFA00F3B1F800C00CEA030647
:100D00009E4220D183004FF00F0C0CFA03F7BC4336
:100D100005FA03FC4CEA040491F803C0BCF1280F67
:100D200006D14FF0010C0CFA00FCC2F814C00AE026
:100D300091F803C0BCF1480F05D14FF0010C0CFA3B
:100D400000FCC2F810C0401C0828D1D31460B1F8D0
:100D500000C0BCF1FF0F34DD546800202EE000F12C
:100D6000080C4FF0010808FA0CF3B1F800C00CEAC7
:100D700003069E4221D183004FF00F0C0CFA03F7BB
:100D8000BC4305FA03FC4CEA040491F803C0BCF12F
:100D9000280F05D100F1080C08FA0CF8C2F81480ED
:100DA00091F803C0BCF1480F07D100F1080C4FF0D7
:100DB000010808FA0CF8C2F81080401C0828CED3AD
:100DC0005460BDE8F0810000F0B50A46002300241D
:100DD0000021002500F00046B6F1004F02D11D4E63
:100DE000F16901E01B4E7168C0F3034583B200F462
:100DF0004016B6F5401F08D121F07061154E766897
:100E000026F07066134F7E6012E000F48016B6F58F
:100E1000801F06D1032606FA05F4A14341F0706154
:100E200006E0460D360103FA06F6B14341F0706163
:100E300022B1460D360103FA06F6314300F00046B2
:100E4000B6F1004F02D1034EF16101E0014E716035
:100E5000F0BD0000000001400246002093680B40F6
:100E60000BB1012000E00020704741617047016133
:100E70007047000010B504460723012221460948A7
:100E8000FFF72CFD01210748FFF789FD00BF022174
:100E90000448FFF7E7FC0028F9D00248FFF7DEFC22
:100EA00010BD0000002401402DE9F04107460C462A
:100EB0000025002608E03846FFF7DCFF0544052042
:100EC00001F09AFC701CC6B2A642F4DBB5FBF4F04C
:100ED00080B2BDE8F08100BFFEE7000010B54FF41E
:100EE00080410948FFF7C3FF4FF400410648FFF770
:100EF000BEFF4FF400410448FFF7B7FF4FF48041B5
:100F00000148FFF7B2FF10BD0010014010B54FF4CB
:100F100080410748FFF7ABFF4FF400410448FFF75B
:100F2000A4FF4FF400410248FFF7A1FF10BD0000ED
:100F30000010014010B54FF480410448FFF797FFBF
:100F40004FF480410148FFF790FF10BD00100140B1
:100F500010B501200B49086000200B49C1F8B00111
:100F600008493039086001200749C1F880014FF471
:100F70007571064800F089FD4FF47571034800F063
:100F800082FD10BDB481214200802142002C01402D
:100F90001FB50121042000F0D3F90121084600F01B
:100FA000CFF948208DF80F000820ADF80C00032081
:100FB0008DF80E0003A91248FFF77AFE03210020E6
:100FC000FFF756FE0820019001208DF80A0000204E
:100FD0008DF8080010208DF8090001A8FFF7DCFD4E
:100FE00009208DF8000001208DF803008DF8010024
:100FF00000208DF80200684600F008F81FBD0000D0
:101000000008014000BFFEE77047000070B50021F6
:1010100000230F22C47804B3154C246804F4E06460
:10102000C4F5E064210AC1F10403CA40447804FA1B
:1010300003F184781440214309010E4C0678A15530
:10104000047804F01F050124AC4005786D11AD0053
:1010500005F1E025C5F8004109E0047804F01F051A
:101060000124AC40044D0678761145F8264070BD49
:101070000CED00E000E400E080E100E00249014303
:10108000024A1160704700000000FA050CED00E014
:1010900070B5002418E004F1B000002100F027F939
:1010A0000021084600F023F90021102000F01FF96C
:1010B000002505E00121002000F019F9681CC5B2E7
:1010C000802DF7DB601CC4B2082CE4DB70BD00008F
:1010D00008B50121102000F033F94FF44040ADF87D
:1010E000000010208DF8030003208DF802006946EF
:1010F0003C48FFF7DDFD4FF440413A48FFF7B7FEAB
:101100004FF4487001F078FB0021AE2000F0EFF8BA
:101110000021084600F0EBF80021102000F0E7F86D
:101120000021402000F0E3F80021B02000F0DFF8BB
:101130000021812000F0DBF80021FF2000F0D7F82B
:101140000021A12000F0D3F80021A62000F0CFF864
:101150000021A82000F0CBF800213F2000F0C7F8C4
:101160000021C82000F0C3F80021D32000F0BFF810
:101170000021084600F0BBF80021D52000F0B7F8A8
:101180000021802000F0B3F80021D82000F0AFF853
:101190000021052000F0ABF80021D92000F0A7F8CD
:1011A0000021F12000F0A3F80021DA2000F09FF8E0
:1011B0000021122000F09BF80021DB2000F097F8BE
:1011C0000021302000F093F800218D2000F08FF8EE
:1011D0000021142000F08BF80021AF2000F087F8E8
:1011E00008BD00000010014070B504460D4605F131
:1011F000B000002100F07BF8102141EA141000211A
:1012000000F075F804F00F00002100F070F870BDD8
:101210002DE9F04707460E469046994600250024E2
:10122000A8F12000C5B27F2F02DD0027B01CC6B296
:10123000B9F1100F24D131463846FFF7D5FF00240D
:1012400008E004EB0511194A505C012100F04FF849
:10125000601CC4B2082CF4DB701CC1B23846FFF726
:10126000C3FF002409E004EB051108310F4A505C6C
:10127000012100F03CF8601CC4B2082CF3DB12E042
:1012800031463846FFF7B0FF00240AE005EB450180
:10129000074A02EB4101085D012100F028F8601CBB
:1012A000C4B2062CF2DBBDE8F08700002C30000849
:1012B000042E00082DE9F04104460F4615469846D5
:1012C00000260FE0AA5D434639462046FFF7A0FFFF
:1012D00004F10800C4B2782C02DD0024B81CC7B2A7
:1012E000701CC6B2A85D0028ECD1BDE8F08170B5D5
:1012F00004460D461DB1E0B200F0D8FD02E0E0B2B8
:1013000000F0BEFD70BD704701460020034A5068E2
:1013100020F4404008435060704700000010024035
:1013200029B1064AD2690243044BDA6104E0034A58
:10133000D2698243014BDA6170470000001002401D
:1013400029B1064A92690243044B9A6104E0034AB8
:1013500092698243014B9A6170470000001002407D
:1013600029B1064AD2680243044BDA6004E0034A1A
:10137000D2688243014BDA607047000000100240DF
:1013800030B500210022002400232D4D6D6805F0AA
:101390000C0121B1042905D0082923D105E0294DEC
:1013A000056022E0274D05601FE0254D6D6805F4BE
:1013B0007012234D6D6805F48034022505EB9242CE
:1013C0001CB9214D554305600BE01D4D6D6805F4BA
:1013D00000351DB11C4D5543056002E0194D5543C4
:1013E000056002E0174D056000BF00BF144D6D6839
:1013F00005F0F0010909154D6B5C0568DD4045609D
:101400000F4D6D6805F4E061090A104D6B5C45688D
:10141000DD4085600A4D6D6805F46051C90A0B4DC9
:101420006B5C4568DD40C560054D6D6805F4404165
:10143000890B074D6B5CC568B5FBF3F5056130BDE5
:101440000010024000127A0000093D005300002005
:101450006300002010B500200B49086001200B49F3
:10146000C1F8B00108493039086000200749C1F8C7
:1014700080014FF47571064800F007FB4FF4757159
:10148000034800F000FB10BDB481214200802142DE
:10149000002C01407047000000B587B0012188038F
:1014A000FFF74EFF01210420FFF74AFF18208DF8B7
:1014B0001B004FF40070ADF8180003208DF81A00DF
:1014C00006A92148FFF7F4FB48208DF81B004FF4D4
:1014D0008060ADF8180003208DF81A0006A91A489C
:1014E000FFF7E6FB4FF4E13002900020ADF8140066
:1014F0000C20ADF812000020ADF81000ADF80E0081
:10150000ADF80C0002A9114800F018FC012240F2CD
:1015100025510E4800F0EDFB4FF4A060FFF7AEFD43
:1015200025208DF8040001208DF807008DF80500B6
:101530008DF8060001A8FFF769FD0121034800F0BE
:10154000A2FB07B000BD00000008014000380140C8
:1015500010B500F001F810BD0CB50020019000900E
:101560003348006840F480303149086000BF30489B
:10157000006800F4003000900198401C0190009831
:1015800018B90198B0F5A06FF1D12948006800F4AE
:10159000003010B10120009001E000200090009880
:1015A000012843D12348006840F010002149086019
:1015B0000846006820F0030008600846006840F014
:1015C000020008601A4840681949486008464068A7
:1015D00048600846406840F48060486008464068BB
:1015E00020F47C1048600846406840F4E8104860E9
:1015F0000846006840F08070086000BF0C48006832
:1016000000F000700028F9D00948406820F003007D
:10161000074948600846406840F00200486000BF43
:101620000348406800F00C000828F9D10CBD000008
:101630000010024000200240042808D14FF0E021B1
:10164000096941F004014FF0E022116107E04FF019
:10165000E021096921F004014FF0E0221161704797
:101660007047000010B51348006840F001001149B0
:10167000086008464068104908400E49486008461E
:1016800000680E4908400B4908600846006820F4CD
:10169000802008600846406820F4FE0048604FF44F
:1016A0001F008860FFF754FF4FF000600449086096
:1016B00010BD0000001002400000FFF8FFFFF6FE22
:1016C00008ED00E008B501210820FFF739FE43F2DC
:1016D0000300ADF8000010208DF8030003208DF802
:1016E000020069460448FFF7E3FA43F203010248A7
:1016F000FFF7BDFB08BD0000000C014008B501214B
:101700000C20FFF71DFE01210C48FFF75DFB782040
:10171000ADF8000028208DF8030069460848FFF75F
:10172000C7FA4FF40040ADF8000028208DF8030000
:1017300069460448FFF7BCFA08BD0000000230000B
:10174000000C01400008014030B589B005460C4648
:101750000121C802FFF7F4FD01210520FFF7F0FD8C
:101760004FF40060ADF8200018208DF8230003200E
:101770008DF8220008A93048FFF79AFA4FF48070DC
:10178000ADF8200018208DF8230003208DF82200EA
:1017900008A92948FFF78CFAADF81850ADF81440A5
:1017A0000020ADF81A00ADF8160005A9234800F096
:1017B0006FF97020ADF804000020ADF80800ADF816
:1017C0000A00ADF80E00ADF81000ADF810000120D1
:1017D000ADF806000020ADF80C0001A9174800F094
:1017E000B1F80821154800F0F9F87020ADF80400B0
:1017F0000020ADF80800ADF80A00ADF80E00ADF815
:101800001000ADF810000120ADF806000020ADF882
:101810000C0001A9094800F0EBF80821074800F086
:1018200025F90121054800F051F80121034800F095
:1018300059F809B030BD000000080140002C0140FB
:1018400070B50121880700F05CF8012820D1FFF76E
:1018500005F91049086008460068142190FBF1F66C
:101860003046FEF705FD05460B4801682846FEF7A1
:101870005BFC0446094801682046FEF755FC084910
:1018800008600020034908600121880700F01BF868
:1018900070BD000008000020400000203C00002037
:1018A0001000002010B50121044800F02AF818B1FA
:1018B0000121024800F007F810BD000000040040BC
:1018C000CA4302827047CA430282704721B102882C
:1018D00042F00102028004E002884FF6FE731A40D3
:1018E0000280704731B1B0F8442042F40042A0F8C1
:1018F000442005E0B0F84420C2F30E02A0F84420D2
:10190000704730B50246002000230024158A05EAFE
:101910000103958905EA010413B10CB1012000E02F
:10192000002030BD1AB183890B43838102E0838993
:101930008B438381704701894FF6F8721140018112
:101940007047000070B5002400220023058C4FF67C
:10195000FE7635400584028C8388048B4FF68F75A4
:101960002C40B51E2C400D882C43751E2A400D8935
:101970002A434D882A43144DA8420BD0134DA84248
:1019800008D0134DA84205D0124DA84202D0124DE6
:10199000A84213D14FF6F7752A404D892A434FF6D6
:1019A000FB752A408D882A434FF6FF652B404FF682
:1019B000FF552B408D892B43CD892B438380048396
:1019C000CD888586028470BD002C01400034014022
:1019D0000040014000440140004801400A46002107
:1019E000018B4FF6F77319401143018370470000D4
:1019F00070B5002200230024058C4EF6FF7635409A
:101A00000584038C8488828B48F6FF752A404FF644
:101A1000FF452A400D884FF6FF7606EA05252A4342
:101A20004DF6FF752B400D8906EA05352B434D8891
:101A300006EA05352B430B4DA84202D00A4DA842B9
:101A400008D14BF6FF752C408D894FF6FF7606EADC
:101A500085152C4384808283CD88A0F84050038470
:101A600070BD0000002C0140003401400A460021F6
:101A7000818B4FF2FF7319404FF6FF7303EA022385
:101A800019438183704781867047A0F840107047E2
:101A9000002202881D4B98420ED01D4B98420BD05D
:101AA000B0F1804F08D01B4B984205D01A4B98429A
:101AB00002D01A4B984204D14FF68F731A404B88CC
:101AC0001A43174B984207D0164B984204D04FF652
:101AD000FF431A40CB881A4302808B8883850B888A
:101AE00003850A4B98420BD0094B984208D00E4B05
:101AF000984205D00D4B984202D00D4B984201D12F
:101B00000B7A03860123838270470000002C01407A
:101B1000003401400004004000080040000C004078
:101B2000001000400014004000400140004401400B
:101B3000004801401FB501210846FFF7F1FB4FF0B7
:101B40008040FFF7F8FE0020ADF80A00ADF806006F
:101B500042F20F70ADF8080041F61F40ADF80400E6
:101B600000208DF80C0001A94FF08040FFF790FF96
:101B700001218807FFF7A4FE012211469007FFF715
:101B8000D1FE1C208DF8000001208DF803000020FC
:101B90008DF801008DF802006846FFF737FA012141
:101BA0008807FFF793FE1FBD10B540F22551294865
:101BB00000F075F801284CD1264800F02BF9C4B28A
:101BC0002548007840B92C2C3DD1012022490870CD
:101BD00000202249087036E01F480078012829D1EA
:101BE0001F481E49097844541C480078401C1B4972
:101BF000087008460078042802DB022016490870A5
:101C000017480078052802D10220154908701448A9
:101C10000078072802D10120114908701048007887
:101C2000012803D00E48007802280CD101200D496C
:101C3000087008E008480078022804D15B2C02D123
:101C400000200549087040F22551024800F00CF8C8
:101C500000BF10BD0038014051000020520000209C
:101C60004C0000202000002010B50022002340F688
:101C70006A14A14200D100BF0A1201249440A3B209
:101C8000DC43048010BD21B1828942F4005282817C
:101C900004E082894DF6FF731A408281704770B567
:101CA0000246002400230025002040F66A16B142B7
:101CB00000D100BFC1F3421501F01F03012606FA4F
:101CC00003F3012D02D19689334006E0022D02D1A3
:101CD000168A334001E0968A33400C12012606FA38
:101CE00004F41688344013B10CB1012000E0002048
:101CF00070BDF0B50346002400260025002040F604
:101D00006A17B94200D100BF1846C1F3421401F06E
:101D10001F06012707FA06F5012C01D10C3004E05B
:101D2000022C01D1103000E014301AB107682F43A3
:101D3000076002E00768AF430760F0BD2DE9F04798
:101D400086B005460E460024A24600BFA1460027E5
:101D5000B08900B100BF2F462C8A4CF6FF700440BA
:101D6000F08804432C82AC894EF6F3100440B0880E
:101D700031890843718908430443AC81AC8A4FF62A
:101D8000FF400440B0890443AC8201A8FFF7F8FA91
:101D90001F48874202D1DDF810A001E0DDF80CA059
:101DA000A88900F4004040B10AEBCA0000EB0A1019
:101DB00031684900B0FBF1F807E00AEBCA0000EB1C
:101DC0000A1031688900B0FBF1F86420B8FBF0F02C
:101DD00004012009642101FB1089A88900F4004056
:101DE00040B1322000EBC900B0FBF1F000F0070079
:101DF000044308E0322000EB09106421B0FBF1F04D
:101E000000F00F0004432C8106B0BDE8F08700000D
:101E10000038014001468888C0F30800704700BFC1
:101E2000FEE700002DE9F04105462C464FF48041C5
:101E30001248FFF71AF800261CE0274607F0800733
:101E4000802F04D139020D48FFF711F804E04FF458
:101E500000410A48FFF709F86006040E4FF480417C
:101E60000648FFF704F84FF480410448FEF7FDFFF1
:101E7000701CC6B2082EE0DBBDE8F0810010014006
:101E800010B50446FFF72AF87820FFF7CBFFFFF7DD
:101E900051F80020FFF7C6FFFFF74CF82046FFF788
:101EA000C1FFFFF747F8FFF731F810BD10B5044642
:101EB000FFF714F87820FFF7B5FFFFF73BF8402055
:101EC000FFF7B0FFFFF736F82046FFF7ABFFFFF74D
:101ED00031F8FFF71BF810BD0FB4084B10B504A97B
:101EE00002AA039800F0DEF8044602A9002000F0E0
:101EF0005CFC204610BC5DF814FB0000AB2700081A
:101F000002E008C8121F08C1002AFAD170477047C2
:101F1000002001E001C1121F002AFBD17047000020
:101F20002DE9FF5F82B00021DDE90430020DDDF80C
:101F300040B0034318D044F61050A2F2FF3242439F
:101F40001514119801281FD0A5EB0B00401C5FEA67
:101F5000000A4FF000064E4FDFF83891B046504669
:101F600015D5CAF1000413E0119801244AA30128F1
:101F700001D16FEA0B010298119AC0E90031C0E962
:101F8000024206B0BDE8F09FCBF10000DFE7044657
:101F90000021404A491842EB0450CDE9001012E0FC
:101FA000E00707D032463B4640464946FEF7EEF88A
:101FB0008046894632463B4610461946FEF7E6F80B
:101FC00006460F466410002CEAD1DDE90401DDE984
:101FD0000023BAF1000F06DAFEF7D8F842464B4666
:101FE000FEF7D4F805E0FEF713FB42464B46FEF73A
:101FF0000FFB04460E460022284BFEF791FB03D848
:102000004FF0FF30014607E00022254B20463146C5
:10201000FEF757FAFEF76BFB102409E0002C0ADBF1
:102020000A220023FEF788F9039B30321A55641EFA
:1020300050EA0102F2D1641C039AC4F11103144462
:10204000119A012A03D0012208430DD10AE0084366
:1020500004D000204FF0110B119072E7A3EB0B0599
:102060006D1E0DE05B4504DD4FF0000205F101053A
:1020700004E003DA4FF00002A5F10105002AECD0DC
:1020800002981199C0E90231C0E9004579E70000E2
:10209000000014400000F03F300000000000F0435A
:1020A0000000E03F2DE9FF4F95B09A46884606466E
:1020B0000025EEE1252877D100242746F94A0121A1
:1020C000039400E0044316F8013F203B01FA03F0BB
:1020D0001042F7D130782A2811D06FF02F033078D2
:1020E000A0F13002092A16D8039A44F0020402EB48
:1020F000820203EB42021044761C0390EFE758F88B
:10210000042B0392002A03DA504244F40054039053
:1021100044F00204761C30782E2816D116F8010FF0
:1021200044F004042A280DD06FF02F023078A0F17B
:102130003003092B09D807EB870302EB4303C718C9
:10214000761CF3E758F8047B761C30786C280FD0A7
:1021500006DC4C2817D068280DD06A2814D104E07A
:10216000742810D07A280FD10DE044F400140AE04E
:1021700044F4801401E044F440147278824202D1A5
:1021800004F58014761C761C307866280BD013DC9E
:10219000582877D009DC002875D04528F6D0462885
:1021A000F4D047281AD193E118E0632835D0642889
:1021B00079D0652812D18BE1702873D008DC6728AC
:1021C000F1D069286FD06E280DD06F2806D1ACE011
:1021D00073282CD0752874D0782853D0524617997C
:1021E00090476D1C54E1C4F30250022809D0032823
:1021F0000DD0D8F8001004280DD00D6008F10408A7
:1022000046E1D8F80010EA17C1E90052F6E7D8F81D
:1022100000100D80F2E70D70F0E718F8041B8DF840
:10222000001000208DF80100EB46012003E058F873
:1022300004BB4FF0FF3061074FF0000102D40DE006
:1022400009F101018946B9420FDA8145F8DB1BF833
:1022500009100029F4D108E009F101018946814201
:10226000FADB1BF809100029F6D103985346A0EBBE
:10227000090721463846179A00F080FA284400EBF7
:10228000090507E044E008E10DE01BF8010B5246A8
:1022900017999047B9F10109F7D2534621463846BC
:1022A000179AF2E039E00A21C4F302524FF0000B12
:1022B0000091022A06D058F8040BC117032A09D04E
:1022C0000AE023E008F1070020F00702F2E802012B
:1022D000904605E000B2C117042A01D140B2C117EF
:1022E000002906DA0A460021404261EB02012D2254
:1022F00002E0220504D52B228DF80420012203E000
:10230000E20701D02022F7E7914657E00A2100E0DA
:1023100010214FF0000B00910BE010214FF0000B4B
:1023200044F004040827009103E008204FF0000B5C
:102330000090C4F30252022A05D058F8040B002181
:10234000032A08D008E008F1070020F00702F2E8AD
:102350000201904603E080B2042A00D1C0B24FF0DF
:10236000000922072AD53278702A07D0DDF800C08C
:102370008CF0100C5CEA0B0C05D00EE040228DF8BE
:102380000420012208E050EA010306D030238DF832
:1023900004308DF8052002229146009B83F008034B
:1023A00053EA0B030AD150EA010201D1620705D5B5
:1023B00030228DF804204FF001097F1E3278582A10
:1023C00004D039A20C920CAA02920BE03BA2F9E7CE
:1023D0005B46009AFDF7B0FF0C9B9B5C029A521E75
:1023E0000292137050EA0102F2D1029804A9081A6D
:1023F00000F1200B600702D524F4803400E00127AF
:102400005F4502DDA7EB0B0000E0002000EB0B01B5
:10241000009003984944401A0390E00306D45346C1
:102420002146179A039800F0A9F90544002706E011
:1024300001A85246C05D179990476D1C7F1C4F45FF
:10244000F6DBE0030CD553462146179A039800F0BB
:1024500095F9054404E030205246179990476D1CC9
:102460000099481E00900029F5DC08E002980299C6
:1024700052460078491C0291179990476D1CBBF198
:102480000001ABF1010BF1DC5BE100F065F9054403
:10249000761C307800287FF40DAE19B02846BDE8D0
:1024A000F08F0000092801003031323334353637DF
:1024B0003839616263646566000000003031323390
:1024C0003435363738394142434445460000000030
:1024D000600700D4062708F1070020F00700F0E8A5
:1024E0000223804603F0004C5FEA0C0001D097A065
:1024F00009E0200501D596A005E0E00701D095A0F0
:1025000001E0AFF24C001390307823F000436528CF
:102510000CD006DC452809D046281DD047287FD19D
:102520003BE0662818D067287AD136E00021112FC9
:1025300001DB112000E0781CCDE9000104A90CA802
:10254000FFF7EEFCDDE90D010C9A4FF0000B07F1EF
:102550000109109200914EE04FF000400097CDE944
:10256000011004A90CA8FFF7DBFCDDE90D020C9BB0
:102570000F994FF0000B91461093009211B9791CFE
:1025800000EB0109B7EB090003D4C0F1FF3B07F1F1
:102590000109A9EB0700019042E0012F00DA0127B1
:1025A0000021112F01DD112000E03846CDE90001A6
:1025B00004A90CA8FFF7B4FCDDE90D010C9A009109
:1025C0004FF0000BB946109221070FD4009A4A45EC
:1025D00003DA914601E0A9F10109B9F1010F05DD26
:1025E000109AA9F10101515C3029F4D0B84202DA05
:1025F00010F1040F03DA0121CDE9011010E00028E9
:1026000003DC8344A9EB000102E0411C494500DDE5
:102610008946A0EB0B00401C01904FF00040029057
:10262000200705D40198484502DB4FF0FF300190A8
:1026300000208DF84B0002980DF14B07B0F1004FD0
:1026400025D002200C902B200D90029800280CDA47
:10265000404202902D200D9007E00A210298FDF7DC
:1026600055FE3031029007F8011D0C99481E0C9060
:102670000029F2DC02980028EFD1791E0D9808702D
:10268000307800F0200040F0450007F8020D11A856
:10269000C01BC01D02901398007800B1012000EB10
:1026A0000901019801EBE071029801440398401A76
:1026B000401E0390E00306D453462146179A039820
:1026C00000F05CF805441398007818B15246179949
:1026D00090476D1CE00323D553462146179A039873
:1026E00000F04CF805441BE0BBF1000F07DB00983D
:1026F000584504DD1098179910F80B0001E0179960
:1027000030205246904701980BF1010B401E05F115
:102710000105019004D12E205246179990476D1C57
:10272000B9F10001A9F10109DEDC05E017F8010BA0
:102730005246179990476D1C0299481E0290002935
:10274000F4DC53462146179A03989EE62D000000BC
:102750002B000000200000002DE9F0410446002578
:102760001E461746880404D405E039462020B047A9
:102770006D1C641EF9D52846BDE8F0812DE9F041B5
:10278000044600251E469046C80301D5302700E0C8
:102790002027880404D505E041463846B0476D1C23
:1027A000641EF9D52846BDE8F0810A68531C0B6009
:1027B0001070704710B56FF00400FEF73DFF0A4837
:1027C00000680A49B0FBF1F0094908700846007832
:1027D00000EB4001C1EBC0104FF6FF7101EAC000F1
:1027E0000449088010BD00002400002000127A0077
:1027F00044000020460000200146114A12884A4346
:102800004FF0E0235A6100229A611A46126942F0A1
:1028100001021A6100BF4FF0E022106900F00102CE
:102820001AB100F48032002AF5D04FF0E02212698C
:1028300022F001024FF0E0231A6100229A617047F2
:10284000460000204FF4A060FEF718FCFFF7B2FF2F
:10285000FEF738FFFEF752FF00F088FAFEF798FB0C
:10286000FEF7AEF840F2671140F2CF70FEF76CFF52
:102870004FF4FA71FE48FFF706F94FF4FA71FC487D
:10288000FFF703F9FFF756F9FEF722FCFEF700FC0D
:10289000FEF702FE62E20A210420FEF705FB8146F4
:1028A0004846FDF7EEFC8246FDF701FD07464FF076
:1028B0006632F04BFDF76AFC0546FDF70BFD04465A
:1028C000ED492046FDF730FC0746FDF7F0FC0546D4
:1028D0002A460B46E9A1EB48FFF7FEFA1023E94A26
:1028E00000210846FEF7E6FCE7480068FDF7DFFC3C
:1028F00005462A460B46E5A1E248FFF7EDFA10230C
:10290000E04A02210020FEF7D5FCE4480068FDF70C
:10291000CEFC05462A460B46E1A1DA48FFF7DCFA71
:102920001023D84A04210020FEF7C4FCE0480278B6
:10293000E0A1D448FFF7D0FA1023D24A06210020A4
:10294000FEF7B8FCDD4800780128A3D1C103DC48BC
:10295000FEF782FAF8B91021DA48FEF77DFAD0B90D
:102960002021D848FEF778FAA8B94021D548FEF7CB
:1029700073FA01280FD100F033FA0520FFF73CFF6E
:10298000FEF754F90A20FFF737FFFEF7E1FA8C2033
:10299000FFF732FFE2E14FF40041C948FEF75CFA6D
:1029A00001281ED11021C748FEF756FAC8B92021C8
:1029B000C448FEF751FAA0B94021C248FEF74CFACC
:1029C00078B900F00DFA0520FFF716FFFEF72EF993
:1029D0000A20FFF711FFFEF73DFD8C20FFF70CFFEB
:1029E000BCE14FF40041B648FEF736FA01281BD18E
:1029F0001021B448FEF730FA012815D12021B14842
:102A0000FEF72AFA80B94021AE48FEF725FA0128E0
:102A10000AD100F0E5F90520FFF7EEFEFEF71AFDFA
:102A20003C20FFF7E9FE99E14FF40041A448FEF78E
:102A300013FA01281BD11021A248FEF70DFA012834
:102A400015D120219F48FEF707FA01280FD1402118
:102A50009C48FEF701FA50B900F0C2F90520FFF7D3
:102A6000CBFEFEF7F7FC6420FFF7C6FE76E14FF4DD
:102A700000419348FEF7F0F901281BD1102191483D
:102A8000FEF7EAF9B0B920218E48FEF7E5F90128F2
:102A900010D140218B48FEF7DFF901280AD100F060
:102AA0009FF90520FFF7A8FEFEF752FA3C20FFF73A
:102AB000A3FE53E14FF400418148FEF7CDF9E0B9A0
:102AC00010218048FEF7C8F9012816D120217D4841
:102AD000FEF7C2F9012810D140217A48FEF7BCF96F
:102AE00001280AD100F07CF90520FFF785FEFEF7EA
:102AF0002FFA6420FFF780FE30E14FF40041704868
:102B0000FEF7AAF901281AD110216E48FEF7A4F9A0
:102B1000012814D120216B48FEF79EF978B9402195
:102B20006848FEF799F950B900F05AF90520FFF707
:102B300063FEFEF78FFC3C20FFF75EFE0EE14FF4D4
:102B400000415F48FEF788F9D0B910215D48FEF7D3
:102B500083F9012814D120215A48FEF77DF978B96C
:102B600040215848FEF778F950B900F039F90520AE
:102B7000FFF742FEFEF76EFC2820FFF73DFEEDE07A
:102B80004FF400414E48FEF767F9D8B910214D487F
:102B9000FEF762F9B0B920214A48FEF75DF9012835
:102BA00010D140214748FEF757F901280AD100F01B
:102BB00017F90520FFF720FEFEF7CAF93C20FFF7C2
:102BC0001BFECBE04FF400413D48FEF745F9D0B97C
:102BD00010213C48FEF740F9A8B920213948FEF7FA
:102BE0003BF901280FD140213648FEF735F950B99D
:102BF00000F0F6F80520FFF7FFFDFEF7A9F9282001
:102C0000FFF7FAFDAAE04FF400412D48FEF724F942
:102C1000012817D110212B48FEF71EF9012811D1E8
:102C200020212848FEF718F901280BD1402125481A
:102C3000FEF712F9012805D100F0D2F83220FFF793
:102C4000DBFD8BE04FF400411D48FEF705F9D8BBD2
:102C500010211C48FEF700F9B0BB20211948FEF7EF
:102C6000FBF888BB40211748FEF7F6F860BB2CE064
:102C7000002C014066664A3F00004040553A252E30
:102C80003266560068000020100000205370656511
:102C9000643A252E3266636D2F7320001C000020DD
:102CA0004C656E6774683A252E3266636D200000AD
:102CB0004C0000204E756D3A256420002000002055
:102CC00000080140000C01402CE000F089F832209F
:102CD000FFF792FD2248007801280FD1FEF738F95E
:102CE0004FF42F70FFF788FDFDF7A0FF4FF4FA7047
:102CF000FFF782FD01E000F073F8FCE71848007868
:102D000002282BD1FEF7A6FB4FF42F70FFF774FDBE
:102D1000FDF78CFF4FF4FA70FFF76EFD01E000F055
:102D20005FF8FCE74FF400410E48FEF795F80128E4
:102D300014D110210C48FEF78FF878B920210A48E9
:102D4000FEF78AF850B940210748FEF785F80128B8
:102D500004D1FDF76BFF3220FFF74EFD9BE500002D
:102D60004C00002000080140000C01401FB501216B
:102D70000420FEF7E5FA01210846FEF7E1FA4820B3
:102D80008DF80F002020ADF80C0003208DF80E0008
:102D900003A91248FDF78CFF05210020FDF768FF0D
:102DA0002020019001208DF80A0000208DF80800F5
:102DB0000C208DF8090001A8FDF7EEFE17208DF814
:102DC000000001208DF8030002208DF80100002092
:102DD0008DF802006846FEF719F91FBD0008014092
:102DE0000020064908600649C1F8B001034930399E
:102DF00008600349C1F8800170470000B481214296
:102E0000008021420000000000000000002F0000B0
:102E100000000700070000147F147F1400242A7F9D
:102E20002A1200626408132300364955225000001C
:102E30000503000000001C224100000041221C008C
:102E40000014083E08140008083E0808000000A00E
:102E5000600000080808080800006060000000200A
:102E600010080402003E5149453E0000427F4000E8
:102E7000004261514946002141454B31001814126E
:102E80007F10002745454539003C4A49493000013B
:102E90007109050300364949493600064949291E8A
:102EA00000003636000000005636000000081422EC
:102EB00041000014141414140000412214080002EC
:102EC0000151090600324959513E007C1211127C11
:102ED000007F49494936003E41414122007F41413E
:102EE000221C007F49494941007F09090901003E30
:102EF0004149497A007F0808087F0000417F41006E
:102F0000002040413F01007F08142241007F4040E3
:102F10004040007F020C027F007F0408107F003ECB
:102F20004141413E007F09090906003E4151215EB1
:102F3000007F091929460046494949310001017FAE
:102F40000101003F4040403F001F2040201F003F44
:102F50004038403F006314081463000708700807F6
:102F600000615149454300007F41410000552A5509
:102F70002A55000041417F00000402010204004084
:102F800040404040000001020400002054545478A6
:102F9000007F4844443800384444442000384444C6
:102FA000487F00385454541800087E090102001864
:102FB000A4A4A47C007F080404780000447D4000A1
:102FC000004080847D00007F102844000000417F85
:102FD0004000007C04180478007C08040478003861
:102FE0004444443800FC242424180018242418FCE9
:102FF000007C0804040800485454542000043F4452
:103000004020003C4040207C001C2040201C003C14
:103010004030403C004428102844001CA0A0A07C64
:10302000004464544C44141414141414000000009C
:10303000000000000000000000000000000000F898
:1030400000000000000000333000000000100C06FB
:10305000100C0600000000000000000040C0784096
:10306000C0784000043F04043F040400007088FC62
:1030700008300000001820FF211E0000F008F000BA
:10308000E018000000211C031E211E0000F008882B
:10309000700000001E2123241927211010160E0095
:1030A000000000000000000000000000000000E040
:1030B0001804020000000007182040000002041855
:1030C000E00000000040201807000000404080F0B1
:1030D000804040000202010F01020200000000F0E7
:1030E000000000000101011F0101010000000000BB
:1030F0000000000080B07000000000000000000030
:1031000000000000000101010101010100000000B8
:10311000000000000030300000000000000000004F
:1031200080601804006018060100000000E010082C
:103130000810E000000F102020100F00001010F801
:10314000000000000020203F202000000070080840
:1031500008887000003028242221300000300888C0
:10316000884830000018202020110E000000C020E8
:1031700010F8000000070424243F240000F8088809
:10318000880808000019212020110E0000E0108896
:1031900088180000000F112020110E0000380808C8
:1031A000C83808000000003F0000000000708808D8
:1031B00008887000001C222121221C0000E0100859
:1031C0000810E0000000312222110F00000000C0B2
:1031D000C00000000000003030000000000000804F
:1031E000000000000000806000000000000080403F
:1031F0002010080000010204081020004040404058
:1032000040404000040404040404040000081020AA
:1032100040800000002010080402010000704808EF
:103220000808F0000000003036010000C030C82857
:10323000E810E0000718272423140B000000C03812
:10324000E0000000203C23020227382008F888888C
:1032500088700000203F202020110E00C030080898
:1032600008083800071820202010080008F808086F
:103270000810E000203F202020100F0008F8888868
:10328000E8081000203F20202320180008F8888834
:10329000E8081000203F200003000000C0300808AC
:1032A0000838000007182020221E020008F8080035
:1032B0000008F808203F210101213F20000808F8FC
:1032C000080800000020203F20200000000008081F
:1032D000F8080800C08080807F00000008F888C0DF
:1032E00028180800203F20012638200008F8080090
:1032F00000000000203F20202020300008F8F800C7
:10330000F8F80800203F003F003F200008F830C0D8
:103310000008F808203F200007183F00E0100808C8
:103320000810E0000F10202020100F0008F80808F7
:103330000808F000203F210101010000E01008080A
:103340000810E0000F18242438504F0008F888882F
:1033500088887000203F2000030C3020007088080F
:10336000080838000038202121221C00180808F81D
:10337000080818000000203F2000000008F808009E
:103380000008F808001F202020201F00087888006F
:1033900000C83808000007380E010000F80800F8DF
:1033A0000008F800033C0700073C03000818688089
:1033B0008068180820302C03032C30200838C800FF
:1033C000C83808000000203F20000000100808084E
:1033D000C83808002038262120201800000000FEF0
:1033E000020202000000007F40404000000C30C09C
:1033F00000000000000000010638C00000020202C8
:10340000FE000000004040407F0000000000040279
:1034100002020400000000000000000000000000A4
:103420000000000080808080808080800002020494
:10343000000000000000000000000000000080808C
:10344000808000000019242222223F2008F80080FA
:1034500080000000003F112020110E0000000080BD
:1034600080800000000E112020201100000000804C
:103470008088F800000E112020103F20000080807E
:1034800080800000001F222222221300008080F092
:10349000888888180020203F2020000000008080BD
:1034A00080808000006B94949493600008F8008002
:1034B00080800000203F210000203F20008098985D
:1034C000000000000020203F2020000000000080BD
:1034D0009898000000C08080807F000008F80000FD
:1034E00080808000203F24022D302000000808F852
:1034F000000000000020203F20200000808080800D
:1035000080808000203F20003F20003F808000809E
:1035100080800000203F210000203F2000008080AC
:1035200080800000001F202020201F00808000805D
:103530008000000080FFA12020110E00000000800C
:1035400080808000000E112020A0FF8080808000FD
:103550008080800020203F2120000100000080802A
:10356000808080000033242424241900008080E01F
:10357000808000000000001F2020000080800000EC
:1035800000808000001F202020103F2080808000CD
:103590000080808000010E300806010080800080DD
:1035A000008080800F300C030C300F000080800002
:1035B000808080000020312E0E312000808080002D
:1035C0000080808080818E701806010000808080DD
:1035D000808080000021302C22213000000000007B
:1035E000807C020200000000003F4040000000001C
:1035F000FF00000000000000FF0000000002027C4D
:10360000800000000040403F000000000006010173
:103610000202040400000000000000003C36000824
:103620000000002068000000001F0008A436000809
:103630006800002018040000101F000800000000AF
:10364000000000000000000000000000000000007A
:10365000000000000000000000000000000000006A
:1036600000A24A0400000000000000000102030460
:1036700006070809000000000000D040C3F54840DC
:10368000000000000000000000000000000000003A
:1036900000000001020304010203040607080902F6
:0436A0000406080014
:0400000508000105E9
:00000001FF
